:060000000A128A11F32F21
:10000A00831603130F088F3930388F000F14080036
:10001A0064008001840A04060319003404060E28C9
:10002A0083160317890183160313860183120313A8
:10003A0086010800F8007808031924282528392899
:10004A00F31F2828292839287009FA007109FB00AA
:10005A007209FC007309FD00FA0A0319FB0A031965
:10006A00FC0A0319FD0A41287308FD007208FC0006
:10007A007108FB007008FA007308720471047004B6
:10008A00031D4828492852280030F3000030F200A6
:10009A000030F1000030F000D6289630F9006228CE
:1000AA000130F4007408F90701300310FD0CFC0C50
:1000BA00FB0CFA0CFF3E031D5A28FE307D05031D7A
:1000CA0067286828552884280130F4007408F9073D
:1000DA000130FA07003003180130FB07003003181B
:1000EA000130FC07003003180130FD07013003100E
:1000FA00FD0CFC0CFB0CFA0CFF3E031D7C28FF30A8
:10010A007D05031D89288A28692896280130F90265
:10011A000130F4000310FA0DFB0DFC0DFD0DF40B7C
:10012A008F28FC1B99289A28A028023079020318E4
:10013A009F28A0288B287918A328A428AC28FF3048
:10014A00FA05FF30FB057F30FC05FF30FD05031083
:10015A00F90C7908F400F501F601F70118300310DB
:10016A00F40DF50DF60DF70DFF3E031DB4287408C6
:10017A00FA047508FB047608FC047708FD0478087D
:10018A000319C828C928CE28F31FCC28CD28CE2881
:10019A00FD177D08F3007C08F2007B08F1007A085D
:1001AA00F00008000A128A1115200A128A110A128E
:1001BA008A1105200A128A110A128A1515270A12AB
:1001CA008A110A128A155D270A128A1183120313E9
:1001DA001F08C33904389F00033083120313D80061
:1001EA00D80BF528831203139F149F18FD28FE28A5
:1001FA00FA280C13831603131E0883120313D8005C
:10020A0006300310D80CFF3E031D06291E08D9002C
:10021A00DA010310D90DDA0D0310D90DDA0D5808D9
:10022A005907DB000030031801305A07DC005B086D
:10023A00EB005C08EC006B08F0006C08F100F201BE
:10024A00F30100300A128A111F200A128A11730858
:10025A0083120313A7007208A6007108A50070088C
:10026A00A4003D30A3000730A2002B30A1000230C9
:10027A00A0000A128A11AE240A128A1183120313E9
:10028A002308C1002208C0002108BF002008BE00C0
:10029A004230BD000030BC000030BB000030BA0064
:1002AA000A128A1156220A128A11831203133D086E
:1002BA00D1003C08D0003B08CF003A08CE000A1211
:1002CA008A1588270A128A11831203134F08E80035
:1002DA004E08E70003306705E50000306805E600D0
:1002EA006808D9006708D8000310D90CD80C031085
:1002FA00D90CD80CFF305805E30000305905E4004A
:10030A006508D800D80E17085806CF39580697003E
:10031A0063089500283083120313D800D80B932959
:10032A009629831203131F08C33908389F00033024
:10033A0083120313D800D80BA029831203139F1426
:10034A009F18A829A929A529831603131E08831211
:10035A000313D80006300310D80CFF3E031DB02942
:10036A001E08D900DA010310D90DDA0D0310D90DD0
:10037A00DA0D58085907DB000030031801305A0714
:10038A00DC005B08E9005C08EA006908F0006A081A
:10039A00F100F201F30100300A128A111F200A1239
:1003AA008A11730883120313A7007208A600710842
:1003BA00A5007008A4003D30A3000730A2002B302E
:1003CA00A1000230A0000A128A11AE240A128A1170
:1003DA00831203132308C1002208C0002108BF00AA
:1003EA002008BE004230BD000030BC000030BB0017
:1003FA000030BA000A128A1156220A128A1183128E
:10040A0003133D08D1003C08D0003B08CF003A084E
:10041A00CE000A128A1588270A128A118312031338
:10042A004F08E2004E08E10003306105DF000030AA
:10043A006205E0006208D9006108D8000310D90CEF
:10044A00D80C0310D90CD80CFF305805DD00003049
:10045A005905DE005F080139D800D80E1D08580674
:10046A00EF3958069D006008D9005F08D8000310CC
:10047A00D90CD80C58080139DA00DA0EDA0D1D0841
:10048A005A06DF395A069D005D089B002830831200
:10049A000313D800D80B4F2A522AEB280A128A11C2
:1004AA000028831203133D088039CA003D08C200A0
:1004BA004207CC00BC1F622A632A642A4C144C08E7
:1004CA000319682A692A792A4C0A031D6D2A6E2A99
:1004DA00762A0030BD000030BC000030BB0000307E
:1004EA00BA00BC17BD01812A0030BD000030BC0033
:1004FA000030BB000030BA0041088039CB004B08FD
:10050A004A060319892A8A2A8B2A4A174108C200ED
:10051A004207CB00C01F922A932A942A4B144B08F5
:10052A000319982A992AA92A4B0A031D9D2A9E2A49
:10053A00A62A0030C1000030C0000030BF000030E1
:10054A00BE00C017C101B12A0030C1000030C0008E
:10055A000030BF000030BE004C084B020318B62A18
:10056A00B72ADD2A4A1FBA2ABB2ABF2A8030C2000C
:10057A004208CA064C08CD004B08CC004D08CB00F7
:10058A003A08CD003E08BA004D08BE003B08CD002F
:10059A003F08BB004D08BF003C08CD004008BC0026
:1005AA004D08C0003D08CD004108BD004D08C100FE
:1005BA00CD014B08C200C3014308C5004C084202E2
:1005CA00C400031CC5034508803AFF0080307F023F
:1005DA00031DF12A1A304402031CF42AF52A2C2B93
:1005EA00831203133D083C043B043A04031DFE2A0C
:1005FA00002B0130012B0030CD000030BD0000304F
:10060A00BC000030BB000030BA004B08CC00342BD1
:10061A004D1C102B112B182B4D08C2000310420C35
:10062A000138CD001A2B0310CD0C3A1C1D2B1E2BA2
:10063A001F2BCD170130C2003D0DBD0CBC0CBB0CED
:10064A00BA0CC20B212B0130C2004208CC0783121C
:10065A0003134B084C02031C332B342B0D2B4A1B60
:10066A00372B382B812B4C08031D3C2B3D2B462B5B
:10067A000030BD000030BC000030BB000030BA00C2
:10068A00AD2C3E08BA073F0803110318013E0319AF
:10069A004F2BBB07400803110318013E0319562BC1
:1006AA00BC07410803110318013E03195D2BBD075E
:1006BA003D1C602B612B352C4D1C642B652B6C2B40
:1006CA004D08C2000310420C0138CD006E2B0310F6
:1006DA00CD0C3A1C712B722B732BCD170130C20033
:1006EA003D0DBD0CBC0CBB0CBA0CC20B752B0130FA
:1006FA00C2004208CC07352C3D08803AFF00410869
:10070A00803A7F02031D932B40083C02031D932B62
:10071A003F083B02031D932B3E083A020318962B0F
:10072A00972BEF2BFF30C200FF30C300FF30C4000D
:10073A00FF30C5003E08C6003F08C7004008C80091
:10074A004108C9003A08C6023B08031C3B0FAE2BFE
:10075A00AF2BC7023C08031C3C0FB42BB52BC802B5
:10076A003D08031C3D0FBA2BBB2BC9024608C20722
:10077A0047080318470FC22BC32BC307480803189F
:10078A00480FC82BC92BC40749080318490AC507CB
:10079A004508BD004408BC004308BB004208BA0033
:1007AA008030C2004208CA06CD09CD0A4D08031D91
:1007BA00DF2BE02BFD2B0130BA0700300318013084
:1007CA00BB07003003180130BC07003003180130A2
:1007DA00BD07FD2B3E08BA023F08031C3F0FBB02B0
:1007EA004008031C400FBC024108031C410FBD0214
:1007FA003D083C043B043A04031D042C052C312C0F
:10080A004D08031D092C0A2C312C0030BD00003084
:10081A00BC000030BB000030BA00AD2C0130C20071
:10082A000310BA0DBB0DBC0DBD0DC20B152CCD1F8F
:10083A001F2C202C212C3A144D1C242C252C282C1E
:10084A000314CD0D2A2C0310CD0D4C0803192E2CA0
:10085A002F2C312C0130CC02BC1F342C352C132CFC
:10086A00CB01CD1F392C3A2C482C4D087F3903195E
:10087A003F2C402C432CCB01CB0A482C3A1C462C4B
:10088A00472C482C402C4B0803194C2C4D2C812CFE
:10089A000130BA07003003180130BB0700300318D3
:1008AA000130BC07003003180130BD073D1C5E2C27
:1008BA005F2C812C3A08C2003B08C3003C08C400E4
:1008CA003D08C5000130C600450DC50CC40CC30C5B
:1008DA00C20CC60B692C4508BD004408BC0043087D
:1008EA00BB004208BA004C0A03197C2C7D2C812CCF
:1008FA000130C2004208CC074C0A0319852C862C09
:10090A008B2C4C08031D8A2C8B2C992C0030BD0093
:10091A000030BC000030BB000030BA004C08031D98
:10092A00972C982C992CCA014C1C9C2C9D2C9F2CE2
:10093A00BC17A32C7F30C2004208BC054C08C20079
:10094A000310420CBD00CA1FAB2CAC2CAD2CBD173A
:10095A0008008312031323088039AD002308A80076
:10096A002807B300A21FBA2CBB2CBC2C33143308A3
:10097A000319C02CC12CD02C330A031DC52CC62C3C
:10098A00CE2C0030A3000030A2000030A1000030BD
:10099A00A000A217D82C0030A3000030A20000301B
:1009AA00A1000030A00027088039A8002808AD0659
:1009BA002708A8002807B200A61FE42CE52CE62C7D
:1009CA00321432080319EA2CEB2CFA2C320A031DD2
:1009DA00EF2CF02CF82C0030A7000030A6000030D5
:1009EA00A5000030A400A617022D0030A700003091
:1009FA00A6000030A5000030A40032080319062D15
:100A0A00072D0C2D3308031D0B2D0C2D152D003031
:100A1A00A3000030A2000030A1000030A000F22F95
:100A2A002008F00026080A128A1536270A128A11A7
:100A3A00710883120313B9007008B8003808A800B7
:100A4A00A901AA01AB012B08B1002A08B0002908A4
:100A5A00AF002808AE003908A800A901AA01AB0115
:100A6A002B08B7002A08B6002908B5002808B400E0
:100A7A002108F00025080A128A1536270A128A1157
:100A8A00710883120313B9007008B8003808A80067
:100A9A00A901AA01AB012808AE0729080311031806
:100AAA00013E0319592DAF072A0803110318013E05
:100ABA000319602DB0072B0803110318013E03190F
:100ACA00672DB1073908A800A901AA01AB012808B6
:100ADA00B407290803110318013E0319752DB50738
:100AEA002A0803110318013E03197C2DB6072B08A7
:100AFA0003110318013E0319832DB7072208F000DA
:100B0A0024080A128A1536270A128A1171088312D2
:100B1A000313B9007008B8003808A800A901AA018F
:100B2A00AB012808AE07290803110318013E03196F
:100B3A009F2DAF072A0803110318013E0319A62D9A
:100B4A00B0072B0803110318013E0319AD2DB10795
:100B5A003908A800A901AA01AB012808B407290885
:100B6A0003110318013E0319BB2DB5072A08031107
:100B7A000318013E0319C22DB6072B0803110318E7
:100B8A00013E0319C92DB7070830A8000310AE0D9E
:100B9A00AF0DB00DB10DA80BCB2D2108F000240824
:100BAA000A128A1536270A128A1171088312031348
:100BBA00B9007008B8003808A8003908A900AA01C5
:100BCA00AB012808AE07290803110318013E0319CF
:100BDA00EF2DAF072A0803110318013E0319F62D5A
:100BEA00B0072B0803110318013E0319FD2DB107A5
:100BFA002008F00025080A128A1536270A128A11D7
:100C0A00710883120313B9007008B8003808A800E5
:100C1A003908A900AA01AB012808AE07290803115F
:100C2A000318013E03191A2EAF072A0803110318E5
:100C3A00013E0319212EB0072B0803110318013EA8
:100C4A000319282EB1070830A8000310AE0DAF0D06
:100C5A00B00DB10DA80B2A2E2008F00024080A12A4
:100C6A008A1536270A128A11710883120313B900EA
:100C7A007008B8003808A8003908A900AA01AB0111
:100C8A002808AE07290803110318013E03194E2E3E
:100C9A00AF072A0803110318013E0319552EB0079E
:100CAA002B0803110318013E03195C2EB107210812
:100CBA00F00026080A128A1536270A128A117108C4
:100CCA0083120313B9007008B8003808A80039085D
:100CDA00A900AA01AB012808B407290803110318BF
:100CEA00013E0319792EB5072A0803110318013E9C
:100CFA000319802EB6072B0803110318013E0319A6
:100D0A00872EB7072208F00025080A128A15362707
:100D1A000A128A11710883120313B9007008B80005
:100D2A003808A8003908A900AA01AB012808B407A5
:100D3A00290803110318013E0319A42EB5072A082E
:100D4A0003110318013E0319AB2EB6072B08031132
:100D5A000318013E0319B22EB7072208F00026082D
:100D6A000A128A1536270A128A1171088312031386
:100D7A00B9007008B8003808A8003908A900AA0103
:100D8A00AB0108300310A80DA90DAA0DAB0DFF3E4B
:100D9A00031DC72E2808B407290803110318013EAA
:100DAA000319D82EB5072A0803110318013E03199F
:100DBA00DF2EB6072B0803110318013E0319E62E8E
:100DCA00B7072E08A8002F08A9003008AA00310882
:100DDA00AB0018300310AB0CAA0CA90CA80CFF3EF0
:100DEA00031DEF2E2808B407290803110318013E32
:100DFA000319002FB5072A0803110318013E031926
:100E0A00072FB6072B0803110318013E03190E2FEB
:100E1A00B7070830A8000310AE0DAF0DB00DB10D25
:100E2A00A80B102F33083207A800A901A90D28081A
:100E3A00823EB80029080318013EFF3EB900422F3E
:100E4A000130A8000310B40DB50DB60DB70DA80BEF
:100E5A00272FB11F312F322F332F34140130A8001E
:100E6A000310AE0DAF0DB00DB10DA80B352FFF302D
:100E7A00B8070318B90AFF30B907B61F452F462F1E
:100E8A00252FB201B11F4A2F4B2F672FFF302E0596
:100E9A00A800FF302F05A900FF303005AA007F30D7
:100EAA003105AB002B082A042904280403195E2FF4
:100EBA005F2F622FB201B20A672F341C652F662F8B
:100ECA00672F5F2F320803196B2F6C2F9D2F01306C
:100EDA00B407003003180130B50700300318013099
:100EEA00B607003003180130B707371C7D2F7E2F55
:100EFA009D2F3408A8003508A9003608AA0037082B
:100F0A00AB000130AC002B0DAB0CAA0CA90CA80C41
:100F1A00AC0B882F2B08B7002A08B6002908B500A1
:100F2A002808B4000130B8070318B90A0030B90715
:100F3A003908803AFF0080307F02031DA62FFF3058
:100F4A003802031CA92FAA2FB52F7F30831203134F
:100F5A00B7008030B6000030B5000030B400E62F8C
:100F6A00831203133908803AFF0080307F02031D81
:100F7A00C02F013038020318C32FC42FD02F0030DE
:100F8A0083120313B7000030B6000030B5000030FA
:100F9A00B400AD01E62F831203133808B300FF3003
:100FAA00B405FF30B5057F30B6050030B705331CF0
:100FBA00DF2FE02FE12FB6173308A8000310280C03
:100FCA00B7002D08A8002808B7043708A300360878
:100FDA00A2003508A1003408A000080083135D3080
:100FEA0084006D300A128A110D200A128A118301B7
:060FFA000A128A11D7283B
:101E2A008316031789018316031385148316031770
:101E3A0088148316031305158316031708158312CE
:101E4A0003139F131F17831603139F121F129F1347
:101E5A00831203131F140330F000F00B322F352FB7
:101E6A000800F800F401F5017008F200F3017208A5
:101E7A00F6007308F700781C432F442F4A2F760880
:101E8A00F4070318F50A7708F50701300310F60D71
:101E9A00F70DFF3E031D4B2F0310F80C7808031DA6
:101EAA00572F582F402F7508F1007408F0000800CA
:101EBA0083160313071587149B3092000C30831284
:101ECA00031397000F309D046508F000F00E170801
:101EDA007006CF3970069700630895005F0C031CE3
:101EEA009D1203189D161D165D089B008C10033069
:101EFA00920412158C1C822F832F7F2F83160313B3
:101F0A00871007110800031083120313500D510D97
:101F1A00D7005708031D922F932F9C2F0030D10012
:101F2A000030D0000030CF000030CE00FF2F4E0826
:101F3A00D2004F08D3005008D4005108D5001F30F2
:101F4A000310D50CD40CD30CD20CFF3E031DA52FC5
:101F5A005208D600D017FF30CE05FF30CF05FF302C
:101F6A00D0050030D1059630D702D71FBD2FBE2F1E
:101F7A00D82F5708803A973E0318C42FC52FC62F6B
:101F8A00932F01300310D10CD00CCF0CCE0CFF3E96
:101F9A00031DC72F0130D2005208D707031DD62FC1
:101FAA00D72FC62FEF2F20305702031CDD2FDE2F2D
:101FBA00EA2F932F0130D2000310CE0DCF0DD00D92
:101FCA00D10DD20BE12F0130D7025708031DEE2F96
:101FDA00EF2FDF2F56080319F32FF42FFF2FCE0907
:101FEA00CF09D009D109CE0A0319CF0A0319D00A99
:061FFA000319D10A0800E2
:08400000FF3FFF3FFF3FFF3FC0
:04400E00D420FF3F7C
:00000001FF
