:060000000A128A110C280F
:10000800FE00030EF0000A08F1000A128A15182FE4
:100018000A128A110F28FA01FB0183120313E30164
:10002800E401E501E601E701E801E901EA01EB0184
:10003800EC01ED01EE0183160313A001A101A20159
:10004800A301A401A50183010A128A11C82D8312F4
:10005800031329088039B3002908AE002E07B90018
:10006800A81F3728382839283914390803193D2892
:100078003E284D28390A031D422843284B280030C2
:10008800A9000030A8000030A7000030A600A8177B
:1000980055280030A9000030A8000030A700003023
:1000A800A6002D088039AE002E08B3062D08AE0034
:1000B8002E07B400AC1F6128622863283414340862
:1000C8000319672868287728340A031D6C286D28C7
:1000D80075280030AD000030AC000030AB000030B7
:1000E800AA00AC177F280030AD000030AC0000300B
:1000F800AB000030AA003408031983288428892813
:100108003908031D8828892892280030A900003062
:10011800A8000030A7000030A6006F2B2608F200C8
:100128002C080A128A15C4260A128A117308831227
:100138000313BF007208BE003E08AE00AF01B00155
:10014800B1013108B8003008B7002F08B6002E08F2
:10015800B5003F08AE00AF01B001B1013108BD00E4
:100168003008BC002F08BB002E08BA002708F20090
:100178002B080A128A15C4260A128A1173088312D8
:100188000313BF007208BE003E08AE00AF01B00105
:10019800B1012E08B5072F0803110318013E0319F2
:1001A800D628B607300803110318013E0319DD28C5
:1001B800B707310803110318013E0319E428B807EB
:1001C8003F08AE00AF01B001B1012E08BA072F08F1
:1001D80003110318013E0319F228BB073008031165
:1001E8000318013E0319F928BC0731080311031845
:1001F800013E03190029BD072808F2002A080A123F
:100208008A15C4260A128A11730883120313BF00C1
:100218007208BE003E08AE00AF01B001B1012E0861
:10022800B5072F0803110318013E03191C29B60747
:10023800300803110318013E03192329B7073108B1
:1002480003110318013E03192A29B8073F08AE0015
:10025800AF01B001B1012E08BA072F080311031826
:10026800013E03193829BB07300803110318013E62
:1002780003193F29BC07310803110318013E03196C
:100288004629BD070830AE000310B50DB60DB70DF1
:10029800B80DAE0B48292708F2002A080A128A1559
:1002A800C4260A128A11730883120313BF00720846
:1002B800BE003E08AE003F08AF00B001B1012E08F5
:1002C800B5072F0803110318013E03196C29B60757
:1002D800300803110318013E03197329B7073108C1
:1002E80003110318013E03197A29B8072608F200FA
:1002F8002B080A128A15C4260A128A117308831257
:100308000313BF007208BE003E08AE003F08AF00EE
:10031800B001B1012E08B5072F0803110318013EDB
:1003280003199729B607300803110318013E03196A
:100338009E29B707310803110318013E0319A5299F
:10034800B8070830AE000310B50DB60DB70DB80DDF
:10035800AE0BA7292608F2002A080A128A15C42615
:100368000A128A11730883120313BF007208BE00B1
:100378003E08AE003F08AF00B001B1012E08B50736
:100388002F0803110318013E0319CB29B6073008BB
:1003980003110318013E0319D229B70731080311C5
:1003A8000318013E0319D929B8072708F2002C08B9
:1003B8000A128A15C4260A128A11730883120313B3
:1003C800BF007208BE003E08AE003F08AF00B00193
:1003D800B1012E08BA072F0803110318013E0319AB
:1003E800F629BB07300803110318013E0319FD293C
:1003F800BC07310803110318013E0319042ABD077D
:100408002808F2002B080A128A15C4260A128A1133
:10041800730883120313BF007208BE003E08AE00C3
:100428003F08AF00B001B1012E08BA072F08031129
:100438000318013E0319212ABB07300803110318CA
:10044800013E0319282ABC07310803110318013E8D
:1004580003192F2ABD072808F2002C080A128A154A
:10046800C4260A128A11730883120313BF00720884
:10047800BE003E08AE003F08AF00B001B101083031
:100488000310AE0DAF0DB00DB10DFF3E031D442A94
:100498002E08BA072F0803110318013E0319552A1D
:1004A800BB07300803110318013E03195C2ABC0777
:1004B800310803110318013E0319632ABD073508E3
:1004C800AE003608AF003708B0003808B100183061
:1004D8000310B10CB00CAF0CAE0CFF3E031D6C2A20
:1004E8002E08BA072F0803110318013E03197D2AA5
:1004F800BB07300803110318013E0319842ABC07FF
:10050800310803110318013E03198B2ABD0708306F
:10051800AE000310B50DB60DB70DB80DAE0B8D2A94
:1005280039083407AE00AF01AF0D2E08823EBE0079
:100538002F080318013EFF3EBF00BF2A0130AE005E
:100548000310BA0DBB0DBC0DBD0DAE0BA42AB81F10
:10055800AE2AAF2AB02A3A140130AE000310B50D06
:10056800B60DB70DB80DAE0BB22AFF30BE07031893
:10057800BF0AFF30BF07BC1FC22AC32AA22AB40180
:10058800B81FC72AC82AE42AFF303505AE00FF3055
:100598003605AF00FF303705B0007F303805B100B1
:1005A800310830042F042E040319DB2ADC2ADF2A41
:1005B800B401B40AE42A3A1CE22AE32AE42ADC2A2F
:1005C80034080319E82AE92A1A2B0130BA0700303F
:1005D80003180130BB07003003180130BC07003096
:1005E80003180130BD073D1CFA2AFB2A1A2B3A08CA
:1005F800AE003B08AF003C08B0003D08B100013038
:10060800B200310DB10CB00CAF0CAE0CB20B052B17
:100618003108BD003008BC002F08BB002E08BA0006
:100628000130BE070318BF0A0030BF073F08803AF1
:10063800FF0080307F02031D232BFF303E02031C86
:10064800262B272B322B7F3083120313BD008030DB
:10065800BC000030BB000030BA00632B83120313C8
:100668003F08803AFF0080307F02031D3D2B013098
:100678003E020318402B412B4D2B003083120313ED
:10068800BD000030BC000030BB000030BA00B30130
:10069800632B831203133E08B900FF30BA05FF30FD
:1006A800BB057F30BC050030BD05391C5C2B5D2BBC
:1006B8005E2BBC173908AE0003102E0CBD003308A2
:1006C800AE002E08BD043D08A9003C08A8003B0860
:1006D800A7003A08A60008008312031343088039CC
:1006E800D0004308C8004807D200C21F7C2B7D2BCE
:1006F8007E2B521452080319822B832B932B520AF8
:10070800031D872B882B902B0030C3000030C200BC
:100718000030C1000030C000C217C3019B2B00305D
:10072800C3000030C2000030C1000030C0004708DC
:100738008039D100510850060319A32BA42BA52BEF
:1007480050174708C8004807D100C61FAC2BAD2B6F
:10075800AE2B511451080319B22BB32BC32B510ADA
:10076800031DB72BB82BC02B0030C7000030C600C4
:100778000030C5000030C400C617C701CB2B0030BD
:10078800C7000030C6000030C5000030C400520861
:1007980051020318D02BD12BF72B501FD42BD52B5C
:1007A800D92B8030C8004808D0065208D300510819
:1007B800D2005308D1004008D3004408C0005308B1
:1007C800C4004108D3004508C1005308C5004208C9
:1007D800D3004608C2005308C6004308D3004708A0
:1007E800C3005308C700D3015108C800C90149080C
:1007F800CB0052084802CA00031CCB034B08803ABE
:10080800FF0080307F02031D0B2C1A304A02031CA4
:100818000E2C0F2C462C8312031343084204410468
:100828004004031D182C1A2C01301B2C0030D30057
:100838000030C3000030C2000030C1000030C000EA
:100848005108D2004E2C531C2A2C2B2C322C530826
:10085800C8000310480C0138D300342C0310D30C03
:10086800401C372C382C392CD3170130C800430DC5
:10087800C30CC20CC10CC00CC80B3B2C0130C80007
:100888004808D2078312031351085202031C4D2C47
:100898004E2C272C501B512C522C9B2C5208031DDC
:1008A800562C572C602C0030C3000030C20000309A
:1008B800C1000030C000C72D4408C0074508031117
:1008C8000318013E0319692CC107460803110318D0
:1008D800013E0319702CC207470803110318013E93
:1008E8000319772CC307431C7A2C7B2C4F2D531CE0
:1008F8007E2C7F2C862C5308C8000310480C013826
:10090800D300882C0310D30C401C8B2C8C2C8D2CE2
:10091800D3170130C800430DC30CC20CC10CC00C66
:10092800C80B8F2C0130C8004808D2074F2D430848
:10093800803AFF004708803A7F02031DAD2C460825
:100948004202031DAD2C45084102031DAD2C44088D
:1009580040020318B02CB12C092DFF30C800FF301D
:10096800C900FF30CA00FF30CB004408CC0045085E
:10097800CD004608CE004708CF004008CC02410809
:10098800031C410FC82CC92CCD024208031C420F7E
:10099800CE2CCF2CCE024308031C430FD42CD52CCD
:1009A800CF024C08C8074D0803184D0FDC2CDD2C6E
:1009B800C9074E0803184E0FE22CE32CCA074F084C
:1009C80003184F0ACB074B08C3004A08C20049085E
:1009D800C1004808C0008030C8004808D006D309C4
:1009E800D30A5308031DF92CFA2C172D0130C00720
:1009F800003003180130C107003003180130C20766
:100A0800003003180130C307172D4408C0024508F9
:100A1800031C450FC1024608031C460FC2024708C3
:100A2800031C470FC3024308420441044004031D4A
:100A38001E2D1F2D4B2D5308031D232D242D4B2D0B
:100A48000030C3000030C2000030C1000030C000D8
:100A5800C72D0130C8000310C00DC10DC20DC30D54
:100A6800C80B2F2DD31F392D3A2D3B2D4014531C65
:100A78003E2D3F2D422D0314D30D442D0310D30DCD
:100A880052080319482D492D4B2D0130D202C21F9F
:100A98004E2D4F2D2D2DD101D31F532D542D622DA9
:100AA80053087F390319592D5A2D5D2DD101D10ACB
:100AB800622D401C602D612D622D5A2D510803199D
:100AC800662D672D9B2D0130C007003003180130BB
:100AD800C107003003180130C20700300318013085
:100AE800C307431C782D792D9B2D4008C800410869
:100AF800C9004208CA004308CB000130CC004B0DA6
:100B0800CB0CCA0CC90CC80CCC0B832D4B08C300EA
:100B18004A08C2004908C1004808C000520A03191F
:100B2800962D972D9B2D0130C8004808D207520AF0
:100B380003199F2DA02DA52D5208031DA42DA52D09
:100B4800B32D0030C3000030C2000030C1000030B7
:100B5800C0005208031DB12DB22DB32DD001521C77
:100B6800B62DB72DB92DC217BD2D7F30C800480846
:100B7800C2055208C8000310480CC300D01FC52D79
:100B8800C62DC72DC31708000A128A157B260A121C
:100B98008A110A128A11F1270A128A110A128A1571
:100BA8009D260A128A110A128A15ED260A128A113E
:100BB80083160313A001A101831203131F08C3396D
:100BC80004389F00033083120313DE00DE0BEA2D86
:100BD800831203139F149F18F22DF32DEF2D0C137E
:100BE800831603131E0883120313DE000630031056
:100BF800DE0CFF3E031DFB2D1E08DF00E001031085
:100C0800DF0DE00D0310DF0DE00D5E085F07E1006A
:100C18000030031801306007E2006108ED00620847
:100C2800EE006D08F2006E08F300F401F5010030E3
:100C38000A128A1546270A128A11750883120313A5
:100C4800AD007408AC007308AB007208AA003D3010
:100C5800A9000730A8002B30A7000230A6000A120E
:100C68008A112B200A128A11831203132908C7003C
:100C78002808C6002708C5002608C4004230C3005B
:100C88000030C2000030C1000030C0000A128A11D2
:100C980070230A128A11831203134308D7004208EB
:100CA800D6004108D5004008D4000A128A117927D5
:100CB8000A128A11831203135508EC005408EB003A
:100CC80003306B05E90000306C05EA006C08DF00B2
:100CD8006B08DE000310DF0CDE0C0310DF0CDE0CEB
:100CE800FF305E05E70000305F05E8006908DE00B8
:100CF800DE0E17085E06CF395E0697006708950076
:100D0800283083120313DE00DE0B882E8B2E83120D
:100D180003131F08C33908389F00033083120313D5
:100D2800DE00DE0B952E831203139F149F189D2E51
:100D38009E2E9A2E831603131E0883120313DE00B9
:100D480006300310DE0CFF3E031DA52E1E08DF0033
:100D5800E0010310DF0DE00D0310DF0DE00D5E086C
:100D68005F07E1000030031801306007E200610806
:100D780083160313A4008312031362088316031354
:100D8800A5002408F2002508F300F401F50100305D
:100D98000A128A1546270A128A1175088312031344
:100DA800AD007408AC007308AB007208AA003D30AF
:100DB800A9000730A8002B30A7000230A6000A12AD
:100DC8008A112B200A128A11831203132908C700DB
:100DD8002808C6002708C5002608C4004230C300FA
:100DE8000030C2000030C1000030C0000A128A1171
:100DF80070230A128A11831203134308D70042088A
:100E0800D6004108D5004008D4000A128A11792773
:100E18000A128A11831203135508E6005408E500E4
:100E280003306505FA0000306605FB006608DF0040
:100E38006508DE000310DF0CDE0C0310DF0CDE0C8F
:100E4800FF305E05E30000305F05E4007A080139F1
:100E5800DE00DE0E1D085E06EF395E069D007B088B
:100E6800DF007A08DE000310DF0CDE0C5E080139B3
:100E7800E000E00EE00D1D086006DF3960069D0009
:100E880063089B00283083120313DE00DE0B4A2F11
:100E98004D2F831203131F08C3390C389F000330EA
:100EA80083120313DE00DE0B572F831203139F14E4
:100EB8009F185F2F602F5C2F1E0886001E08DE001B
:100EC800DF015E0883160313A200831203135F0871
:100ED80083160313A300033083120313DE00DE0B13
:100EE800732FE02D0A128A110C28031083120313A2
:100EF800560D570DDD005D08031D832F842F8D2FA0
:100F08000030D7000030D6000030D5000030D400C3
:100F1800F02F5408D8005508D9005608DA005708A9
:100F2800DB001F300310DB0CDA0CD90CD80CFF3EA9
:100F3800031D962F5808DC00D617FF30D405FF3064
:100F4800D505FF30D6050030D7059630DD02DD1F08
:100F5800AE2FAF2FC92F5D08803A973E0318B52FE3
:100F6800B62FB72F842F01300310D70CD60CD50C11
:100F7800D40CFF3E031DB82F0130D8005808DD07F8
:100F8800031DC72FC82FB72FE02F20305D02031C89
:100F9800CE2FCF2FDB2F842F0130D8000310D40D94
:100FA800D50DD60DD70DD80BD22F0130DD025D0837
:100FB800031DDF2FE02FD02F5C080319E42FE52F46
:100FC800F02FD409D509D609D709D40A0319D50AA7
:100FD8000319D60A0319D70A0800831603130F0842
:0A0FE8008F3930388F000F14080015
:101CF60083160317890183160313860183120313C0
:101D06008601880183160313061008108B170C171B
:101D16008B16831203130C130B11831603138112F4
:101D260081110108F83903388100F030831203135A
:101D3600810008008316031789018316031385148F
:101D460083160317881483160313051583160317C2
:101D56000815831603138515831603178815831232
:101D660003139F131F17831603139F121F129F132C
:101D7600831203131F140330F200F20BC02EC32E7E
:101D8600080083120313A400A001A1017208F40045
:101D9600F5017408A2007508A300241CD32ED42EC6
:101DA600DA2E2208A0070318A10A2308A10701308A
:101DB6000310A20DA30DFF3E031DDB2E0310A40C82
:101DC6002408031DE72EE82ED02E2108F300200854
:101DD600F200080083160313071587149B30920040
:101DE6000C308312031397000F309D046908F2002C
:101DF600F20E17087206CF3972069700670895002B
:101E06007A0C031C9D1203189D161D1663089B0071
:101E16008C100330920412158C1C122F132F0F2FC7
:101E260083160313871007110800831203130C1F70
:101E36001D2F1E2F1F2F0C130B1D222F232F3F2F5D
:101E4600013083160313A0070318A10A0030A10767
:101E560021082302031D312F20082202031C342FE0
:101E6600352F392F8312031308143C2F83120313C3
:101E76000810F03081000B1171088A00700E830083
:101E8600FE0E7E0E090083120313A000200803191C
:101E96004D2F4E2F622FF51F512F522F622F720991
:101EA600A2007309A3007409A4007509A500A20A7B
:101EB6000319A30A0319A40A0319A50A6A2F7508A8
:101EC600A5007408A4007308A3007208A200750890
:101ED600740473047204031D712F722F7B2F00305C
:101EE600F5000030F4000030F3000030F200FF2F60
:101EF6009630A1008B2F0130F6007608A10701303D
:101F06000310A50CA40CA30CA20CFF3E031D832FEB
:101F1600FE302505031D902F912F7E2FAD2F01300A
:101F2600F6007608A1070130A20700300318013039
:101F3600A307003003180130A4070030031801304E
:101F4600A50701300310A50CA40CA30CA20CFF3EA0
:101F5600031DA52FFF302505031DB22FB32F922F8A
:101F6600BF2F0130A1020130F6000310A20DA30D10
:101F7600A40DA50DF60BB82FA41BC22FC32FC92F76
:101F8600023021020318C82FC92FB42F2118CC2FD5
:101F9600CD2FD52FFF30A205FF30A3057F30A40536
:101FA600FF30A5050310A10C2108F600F701F80182
:101FB600F90118300310F60DF70DF80DF90DFF3E77
:101FC600031DDD2F7608A2047708A3047808A4046D
:101FD6007908A50420080319F12FF22FF72FF51F12
:101FE600F52FF62FF72FA5172508F5002408F4007E
:0A1FF6002308F3002208F20008009F
:08400000FF3FFF3FFF3FFF3FC0
:04400E00D420FF3F7C
:00000001FF
