:060000000A128A11F22F22
:10000A00831603130F088F3930388F0008008316C0
:10001A0003178901831603138601831203138601CA
:10002A000800F800F401F5017008F200F301720803
:10003A00F6007308F700781C232824282A28760853
:10004A00F4070318F50A7708F50701300310F60DCF
:10005A00F70DFF3E031D2B280310F80C7808031D2B
:10006A003728382820287508F1007408F00008009D
:10007A0083160317890183160313051485140515BE
:10008A0083160317081488140815831203139E0194
:10009A00831603139E01831203139F131F178316DC
:1000AA0003139F121F129F13831203139F121F120F
:1000BA009F111F111F140330F000F00B62286528EE
:1000CA000800031083120313500D510DD70057086F
:1000DA00031D702871287A280030D1000030D00022
:1000EA000030CF000030CE00DD284E08D2004F0885
:1000FA00D3005008D4005108D5001F300310D50C86
:10010A00D40CD30CD20CFF3E031D83285208D60010
:10011A00D017FF30CE05FF30CF05FF30D0050030B5
:10012A00D1059630D702D71F9B289C28B628570896
:10013A00803A973E0318A228A328A42871280130E0
:10014A000310D10CD00CCF0CCE0CFF3E031DA528FA
:10015A000130D2005208D707031DB428B528A428B5
:10016A00CD2820305702031CBB28BC28C828712878
:10017A000130D2000310CE0DCF0DD00DD10DD20B10
:10018A00BF280130D7025708031DCC28CD28BD2827
:10019A0056080319D128D228DD28CE09CF09D0095B
:1001AA00D109CE0A0319CF0A0319D00A0319D10AB1
:1001BA000800F80078080319E328E428F828F31F50
:1001CA00E728E828F8287009FA007109FB00720983
:1001DA00FC007309FD00FA0A0319FB0A0319FC0A59
:1001EA000319FD0A00297308FD007208FC00710852
:1001FA00FB007008FA007308720471047004031D8E
:10020A000729082911290030F3000030F2000030D4
:10021A00F1000030F00095299630F90021290130CB
:10022A00F4007408F90701300310FD0CFC0CFB0CF8
:10023A00FA0CFF3E031D1929FE307D05031D2629F0
:10024A002729142943290130F4007408F9070130D9
:10025A00FA07003003180130FB0700300318013099
:10026A00FC07003003180130FD0701300310FD0CB4
:10027A00FC0CFB0CFA0CFF3E031D3B29FF307D05ED
:10028A00031D48294929282955290130F902013035
:10029A00F4000310FA0DFB0DFC0DFD0DF40B4E29B5
:1002AA00FC1B582959295F290230790203185E2953
:1002BA005F294A297918622963296B29FF30FA05CF
:1002CA00FF30FB057F30FC05FF30FD050310F90CFC
:1002DA007908F400F501F601F70118300310F40D5E
:1002EA00F50DF60DF70DFF3E031D73297408FA0488
:1002FA007508FB047608FC047708FD0478080319DE
:10030A00872988298D29F31F8B298C298D29FD1787
:10031A007D08F3007C08F2007B08F1007A08F000FF
:10032A0008000A128A110C200A128A110A128A116A
:10033A0005200A128A110A128A15DF270A128A115F
:10034A000A128A113D200A128A11831203139F147A
:10035A004B2A0C13831603131E0883120313D800A7
:10036A0006300310D80CFF3E031DB6291E08D9001B
:10037A00DA010310D90DDA0D0310D90DDA0D580878
:10038A005907DB000030031801305A07DC005B080C
:10039A00E3005C08E4006308F0006408F100F2017D
:1003AA00F30100300A128A11DE200A128A11730838
:1003BA0083120313A7007208A6007108A50070082B
:1003CA00A4003D30A3000730A2002B30A100023068
:1003DA00A0000A128A11AD240A128A118312031389
:1003EA002308C1002208C0002108BF002008BE005F
:1003FA004230BD000030BC000030BB000030BA0003
:10040A000A128A1155220A128A11831203133D080D
:10041A00D1003C08D0003B08CF003A08CE000A12AF
:10042A008A1166200A128A11831203134F08E20006
:10043A004E08E10003306105DF0000306205E0008C
:10044A006208D9006108D8000310D90CD80C03102F
:10045A00D90CD80CFF305805DD0000305905DE00F4
:10046A005F08D800D80E17085806CF3958069700E3
:10047A005D0895000A128A15DF270A128A112830A8
:10048A0083120313D800D80B482A4B2A831203136A
:10049A009F18502A512AAE29AA290A128A1100281D
:1004AA00831203133D088039CA003D08C20042077F
:1004BA00CC00BC1F612A622A632A4C144C08031917
:1004CA00672A682A782A4C0A031D6C2A6D2A752A1B
:1004DA000030BD000030BC000030BB000030BA0064
:1004EA00BC17BD01802A0030BD000030BC000030BE
:1004FA00BB000030BA0041088039CB004B084A06DD
:10050A000319882A892A8A2A4A174108C2004207F7
:10051A00CB00C01F912A922A932A4B144B08031925
:10052A00972A982AA82A4B0A031D9C2A9D2AA52A9B
:10053A000030C1000030C0000030BF000030BE00F3
:10054A00C017C101B02A0030C1000030C00000301D
:10055A00BF000030BE004C084B020318B52AB62A69
:10056A00DC2A4A1FB92ABA2ABE2A8030C2004208A7
:10057A00CA064C08CD004B08CC004D08CB003A08FF
:10058A00CD003E08BA004D08BE003B08CD003F082A
:10059A00BB004D08BF003C08CD004008BC004D0818
:1005AA00C0003D08CD004108BD004D08C100CD0185
:1005BA004B08C200C3014308C5004C084202C400EC
:1005CA00031CC5034508803AFF0080307F02031DE3
:1005DA00F02A1A304402031CF32AF42A2B2B831222
:1005EA0003133D083C043B043A04031DFD2AFF2A79
:1005FA000130002B0030CD000030BD000030BC00BF
:10060A000030BB000030BA004B08CC00332B4D1C25
:10061A000F2B102B172B4D08C2000310420C013868
:10062A00CD00192B0310CD0C3A1C1C2B1D2B1E2B95
:10063A00CD170130C2003D0DBD0CBC0CBB0CBA0C71
:10064A00C20B202B0130C2004208CC0783120313CD
:10065A004B084C02031C322B332B0C2B4A1B362B18
:10066A00372B802B4C08031D3B2B3C2B452B003092
:10067A00BD000030BC000030BB000030BA00AC2C1A
:10068A003E08BA073F0803110318013E03194E2B0F
:10069A00BB07400803110318013E0319552BBC0779
:1006AA00410803110318013E03195C2BBD073D1CC9
:1006BA005F2B602B342C4D1C632B642B6B2B4D084A
:1006CA00C2000310420C0138CD006D2B0310CD0C73
:1006DA003A1C702B712B722BCD170130C2003D0DC5
:1006EA00BD0CBC0CBB0CBA0CC20B742B0130C20083
:1006FA004208CC07342C3D08803AFF004108803A72
:10070A007F02031D922B40083C02031D922B3F08D7
:10071A003B02031D922B3E083A020318952B962B97
:10072A00EE2BFF30C200FF30C300FF30C400FF30A1
:10073A00C5003E08C6003F08C7004008C800410877
:10074A00C9003A08C6023B08031C3B0FAD2BAE2B6F
:10075A00C7023C08031C3C0FB32BB42BC8023D084C
:10076A00031C3D0FB92BBA2BC9024608C20747081A
:10077A000318470FC12BC22BC30748080318480F99
:10078A00C72BC82BC40749080318490AC5074508D7
:10079A00BD004408BC004308BB004208BA008030D0
:1007AA00C2004208CA06CD09CD0A4D08031DDE2B38
:1007BA00DF2BFC2B0130BA07003003180130BB07CE
:1007CA00003003180130BC07003003180130BD07A0
:1007DA00FC2B3E08BA023F08031C3F0FBB0240082D
:1007EA00031C400FBC024108031C410FBD023D0817
:1007FA003C043B043A04031D032C042C302C4D0802
:10080A00031D082C092C302C0030BD000030BC0020
:10081A000030BB000030BA00AC2C0130C20003101B
:10082A00BA0DBB0DBC0DBD0DC20B142CCD1F1E2C59
:10083A001F2C202C3A144D1C232C242C272C031457
:10084A00CD0D292C0310CD0D4C0803192D2C2E2C5F
:10085A00302C0130CC02BC1F332C342C122CCB018F
:10086A00CD1F382C392C472C4D087F3903193E2CC3
:10087A003F2C422CCB01CB0A472C3A1C452C462C48
:10088A00472C3F2C4B0803194B2C4C2C802C013045
:10089A00BA07003003180130BB07003003180130D3
:1008AA00BC07003003180130BD073D1C5D2C5E2CCF
:1008BA00802C3A08C2003B08C3003C08C4003D082B
:1008CA00C5000130C600450DC50CC40CC30CC20CD2
:1008DA00C60B682C4508BD004408BC004308BB0091
:1008EA004208BA004C0A03197B2C7C2C802C01305C
:1008FA00C2004208CC074C0A0319842C852C8A2C86
:10090A004C08031D892C8A2C982C0030BD0000301D
:10091A00BC000030BB000030BA004C08031D962C06
:10092A00972C982CCA014C1C9B2C9C2C9E2CBC17D7
:10093A00A22C7F30C2004208BC054C08C20003103A
:10094A00420CBD00CA1FAA2CAB2CAC2CBD17080048
:10095A008312031323088039AD002308A80028074F
:10096A00B300A21FB92CBA2CBB2C331433080319B9
:10097A00BF2CC02CCF2C330A031DC42CC52CCD2C64
:10098A000030A3000030A2000030A1000030A00017
:10099A00A217D72C0030A3000030A2000030A1001B
:1009AA000030A00027088039A8002808AD062708CB
:1009BA00A8002807B200A61FE32CE42CE52C321469
:1009CA0032080319E92CEA2CF92C320A031DEE2C01
:1009DA00EF2CF72C0030A7000030A6000030A5004D
:1009EA000030A400A617012D0030A7000030A60091
:1009FA000030A5000030A40032080319052D062D89
:100A0A000B2D3308031D0A2D0B2D142D0030A300C6
:100A1A000030A2000030A1000030A000F12F200811
:100A2A00F00026080A128A1116200A128A11710881
:100A3A0083120313B9007008B8003808A800A90186
:100A4A00AA01AB012B08B1002A08B0002908AF009F
:100A5A002808AE003908A800A901AA01AB012B0891
:100A6A00B7002A08B6002908B5002808B4002108EA
:100A7A00F00025080A128A1116200A128A11710832
:100A8A0083120313B9007008B8003808A800A90136
:100A9A00AA01AB012808AE07290803110318013E71
:100AAA000319582DAF072A0803110318013E031929
:100ABA005F2DB0072B0803110318013E0319662D99
:100ACA00B1073908A800A901AA01AB012808B4078F
:100ADA00290803110318013E0319742DB5072A08C2
:100AEA0003110318013E03197B2DB6072B080311C6
:100AFA000318013E0319822DB7072208F0002408C3
:100B0A000A128A1116200A128A1171088312031313
:100B1A00B9007008B8003808A800A901AA01AB01F9
:100B2A002808AE07290803110318013E03199E2D50
:100B3A00AF072A0803110318013E0319A52DB007B0
:100B4A002B0803110318013E0319AC2DB10739080C
:100B5A00A800A901AA01AB012808B40729080311B2
:100B6A000318013E0319BA2DB5072A080311031801
:100B7A00013E0319C12DB6072B0803110318013EC4
:100B8A000319C82DB7070830A8000310AE0DAF0D22
:100B9A00B00DB10DA80BCA2D2108F00024080A12C5
:100BAA008A1116200A128A11710883120313B900D6
:100BBA007008B8003808A8003908A900AA01AB01D2
:100BCA002808AE07290803110318013E0319EE2D60
:100BDA00AF072A0803110318013E0319F52DB007C0
:100BEA002B0803110318013E0319FC2DB107200835
:100BFA00F00025080A128A1116200A128A117108B1
:100C0A0083120313B9007008B8003808A80039081D
:100C1A00A900AA01AB012808AE0729080311031885
:100C2A00013E0319192EAF072A0803110318013EC2
:100C3A000319202EB0072B0803110318013E0319CC
:100C4A00272EB1070830A8000310AE0DAF0DB00D66
:100C5A00B10DA80B292E2008F00024080A128A11C7
:100C6A0016200A128A11710883120313B900700838
:100C7A00B8003808A8003908A900AA01AB01280859
:100C8A00AE07290803110318013E03194D2EAF07B9
:100C9A002A0803110318013E0319542EB0072B0822
:100CAA0003110318013E03195B2EB1072108F00056
:100CBA0026080A128A1116200A128A11710883124A
:100CCA000313B9007008B8003808A8003908A90049
:100CDA00AA01AB012808B407290803110318013E29
:100CEA000319782EB5072A0803110318013E0319C0
:100CFA007F2EB6072B0803110318013E0319862E0F
:100D0A00B7072208F00025080A128A1116200A12CB
:100D1A008A11710883120313B9007008B8003808E1
:100D2A00A8003908A900AA01AB012808B4072908B4
:100D3A0003110318013E0319A32EB5072A0803114C
:100D4A000318013E0319AA2EB6072B08031103182C
:100D5A00013E0319B12EB7072208F00026080A122D
:100D6A008A1116200A128A11710883120313B90014
:100D7A007008B8003808A8003908A900AA01AB0110
:100D8A0008300310A80DA90DAA0DAB0DFF3E031DD7
:100D9A00C62E2808B407290803110318013E0319AF
:100DAA00D72EB5072A0803110318013E0319DE2EB0
:100DBA00B6072B0803110318013E0319E52EB707DE
:100DCA002E08A8002F08A9003008AA003108AB0095
:100DDA0018300310AB0CAA0CA90CA80CFF3E031D7B
:100DEA00EE2E2808B407290803110318013E031937
:100DFA00FF2EB5072A0803110318013E0319062F0F
:100E0A00B6072B0803110318013E03190D2FB70764
:100E1A000830A8000310AE0DAF0DB00DB10DA80B30
:100E2A000F2F33083207A800A901A90D2808823E0E
:100E3A00B80029080318013EFF3EB900412F0130CE
:100E4A00A8000310B40DB50DB60DB70DA80B262FCB
:100E5A00B11F302F312F322F34140130A800031064
:100E6A00AE0DAF0DB00DB10DA80B342FFF30B80782
:100E7A000318B90AFF30B907B61F442F452F242F8C
:100E8A00B201B11F492F4A2F662FFF302E05A80045
:100E9A00FF302F05A900FF303005AA007F30310549
:100EAA00AB002B082A042904280403195D2F5E2F9E
:100EBA00612FB201B20A662F341C642F652F662F88
:100ECA005E2F320803196A2F6B2F9C2F0130B4074B
:100EDA00003003180130B507003003180130B60797
:100EEA00003003180130B707371C7C2F7D2F9C2F49
:100EFA003408A8003508A9003608AA003708AB004C
:100F0A000130AC002B0DAB0CAA0CA90CA80CAC0B35
:100F1A00872F2B08B7002A08B6002908B500280829
:100F2A00B4000130B8070318B90A0030B907390804
:100F3A00803AFF0080307F02031DA52FFF30380260
:100F4A00031CA82FA92FB42F7F3083120313B700D5
:100F5A008030B6000030B5000030B400E52F8312AF
:100F6A0003133908803AFF0080307F02031DBF2F28
:100F7A00013038020318C22FC32FCF2F003083123B
:100F8A000313B7000030B6000030B5000030B400DB
:100F9A00AD01E52F831203133808B300FF30B405FF
:100FAA00FF30B5057F30B6050030B705331CDE2F9C
:100FBA00DF2FE02FB6173308A8000310280CB7005C
:100FCA002D08A8002808B7043708A3003608A2008D
:100FDA003508A1003408A000080083120313DD01BC
:100FEA00DE01DF01E001E101E201E301E401830145
:060FFA000A128A1196297B
:101FBE0083160313071587149B3092000C3083127F
:101FCE00031397005F08F000F00E17087006CF3964
:101FDE00700697005D0895008C1003309204121560
:101FEE008C1CFA2FFB2FF72F831603130711871064
:021FFE000800D9
:08400000FF3FFF3FFF3FFF3FC0
:04400E00D420FF3F7C
:00000001FF
